{
  "abi": [
    {
      "inputs": [
        {
          "internalType": "address",
          "name": "_zoraERC721TransferHelper",
          "type": "address"
        },
        {
          "internalType": "contract IFactoryUpgradeGate",
          "name": "_factoryUpgradeGate",
          "type": "address"
        },
        {
          "internalType": "uint256",
          "name": "_mintFeeAmount",
          "type": "uint256"
        },
        {
          "internalType": "address payable",
          "name": "_mintFeeRecipient",
          "type": "address"
        },
        {
          "internalType": "address",
          "name": "_protocolRewards",
          "type": "address"
        }
      ],
      "stateMutability": "nonpayable",
      "type": "constructor"
    },
    {
      "inputs": [
        {
          "internalType": "bytes32",
          "name": "role",
          "type": "bytes32"
        }
      ],
      "name": "Access_MissingRoleOrAdmin",
      "type": "error"
    },
    {
      "inputs": [],
      "name": "Access_OnlyAdmin",
      "type": "error"
    },
    {
      "inputs": [],
      "name": "Access_WithdrawNotAllowed",
      "type": "error"
    },
    {
      "inputs": [
        {
          "internalType": "address",
          "name": "proposedAddress",
          "type": "address"
        }
      ],
      "name": "Admin_InvalidUpgradeAddress",
      "type": "error"
    },
    {
      "inputs": [],
      "name": "Admin_UnableToFinalizeNotOpenEdition",
      "type": "error"
    },
    {
      "inputs": [],
      "name": "ApprovalCallerNotOwnerNorApproved",
      "type": "error"
    },
    {
      "inputs": [],
      "name": "ApprovalQueryForNonexistentToken",
      "type": "error"
    },
    {
      "inputs": [],
      "name": "ApprovalToCurrentOwner",
      "type": "error"
    },
    {
      "inputs": [],
      "name": "ApproveToCaller",
      "type": "error"
    },
    {
      "inputs": [],
      "name": "BalanceQueryForZeroAddress",
      "type": "error"
    },
    {
      "inputs": [],
      "name": "CREATOR_FUNDS_RECIPIENT_NOT_SET",
      "type": "error"
    },
    {
      "inputs": [],
      "name": "ExternalMetadataRenderer_CallFailed",
      "type": "error"
    },
    {
      "inputs": [],
      "name": "INVALID_ADDRESS_ZERO",
      "type": "error"
    },
    {
      "inputs": [],
      "name": "INVALID_ETH_AMOUNT",
      "type": "error"
    },
    {
      "inputs": [],
      "name": "InvalidMintSchedule",
      "type": "error"
    },
    {
      "inputs": [],
      "name": "MarketFilterDAOAddressNotSupportedForChain",
      "type": "error"
    },
    {
      "inputs": [],
      "name": "MintFee_FundsSendFailure",
      "type": "error"
    },
    {
      "inputs": [],
      "name": "MintToZeroAddress",
      "type": "error"
    },
    {
      "inputs": [],
      "name": "MintZeroQuantity",
      "type": "error"
    },
    {
      "inputs": [],
      "name": "Mint_SoldOut",
      "type": "error"
    },
    {
      "inputs": [],
      "name": "ONLY_CREATE_REFERRAL",
      "type": "error"
    },
    {
      "inputs": [],
      "name": "ONLY_OWNER",
      "type": "error"
    },
    {
      "inputs": [],
      "name": "ONLY_PENDING_OWNER",
      "type": "error"
    },
    {
      "inputs": [
        {
          "internalType": "address",
          "name": "operator",
          "type": "address"
        }
      ],
      "name": "OperatorNotAllowed",
      "type": "error"
    },
    {
      "inputs": [],
      "name": "OwnerQueryForNonexistentToken",
      "type": "error"
    },
    {
      "inputs": [],
      "name": "Presale_Inactive",
      "type": "error"
    },
    {
      "inputs": [],
      "name": "Presale_MerkleNotApproved",
      "type": "error"
    },
    {
      "inputs": [],
      "name": "Presale_TooManyForAddress",
      "type": "error"
    },
    {
      "inputs": [],
      "name": "ProtocolRewards_WithdrawSendFailure",
      "type": "error"
    },
    {
      "inputs": [],
      "name": "Purchase_TooManyForAddress",
      "type": "error"
    },
    {
      "inputs": [
        {
          "internalType": "uint256",
          "name": "correctPrice",
          "type": "uint256"
        }
      ],
      "name": "Purchase_WrongPrice",
      "type": "error"
    },
    {
      "inputs": [],
      "name": "RemoteOperatorFilterRegistryCallFailed",
      "type": "error"
    },
    {
      "inputs": [],
      "name": "Sale_Inactive",
      "type": "error"
    },
    {
      "inputs": [
        {
          "internalType": "uint16",
          "name": "maxRoyaltyBPS",
          "type": "uint16"
        }
      ],
      "name": "Setup_RoyaltyPercentageTooHigh",
      "type": "error"
    },
    {
      "inputs": [],
      "name": "TransferCallerNotOwnerNorApproved",
      "type": "error"
    },
    {
      "inputs": [],
      "name": "TransferFromIncorrectOwner",
      "type": "error"
    },
    {
      "inputs": [],
      "name": "TransferToNonERC721ReceiverImplementer",
      "type": "error"
    },
    {
      "inputs": [],
      "name": "TransferToZeroAddress",
      "type": "error"
    },
    {
      "inputs": [],
      "name": "URIQueryForNonexistentToken",
      "type": "error"
    },
    {
      "inputs": [],
      "name": "Withdraw_FundsSendFailure",
      "type": "error"
    },
    {
      "anonymous": false,
      "inputs": [
        {
          "indexed": false,
          "internalType": "address",
          "name": "previousAdmin",
          "type": "address"
        },
        {
          "indexed": false,
          "internalType": "address",
          "name": "newAdmin",
          "type": "address"
        }
      ],
      "name": "AdminChanged",
      "type": "event"
    },
    {
      "anonymous": false,
      "inputs": [
        {
          "indexed": true,
          "internalType": "address",
          "name": "owner",
          "type": "address"
        },
        {
          "indexed": true,
          "internalType": "address",
          "name": "approved",
          "type": "address"
        },
        {
          "indexed": true,
          "internalType": "uint256",
          "name": "tokenId",
          "type": "uint256"
        }
      ],
      "name": "Approval",
      "type": "event"
    },
    {
      "anonymous": false,
      "inputs": [
        {
          "indexed": true,
          "internalType": "address",
          "name": "owner",
          "type": "address"
        },
        {
          "indexed": true,
          "internalType": "address",
          "name": "operator",
          "type": "address"
        },
        {
          "indexed": false,
          "internalType": "bool",
          "name": "approved",
          "type": "bool"
        }
      ],
      "name": "ApprovalForAll",
      "type": "event"
    },
    {
      "anonymous": false,
      "inputs": [
        {
          "indexed": false,
          "internalType": "uint256",
          "name": "_fromTokenId",
          "type": "uint256"
        },
        {
          "indexed": false,
          "internalType": "uint256",
          "name": "_toTokenId",
          "type": "uint256"
        }
      ],
      "name": "BatchMetadataUpdate",
      "type": "event"
    },
    {
      "anonymous": false,
      "inputs": [
        {
          "indexed": true,
          "internalType": "address",
          "name": "beacon",
          "type": "address"
        }
      ],
      "name": "BeaconUpgraded",
      "type": "event"
    },
    {
      "anonymous": false,
      "inputs": [
        {
          "indexed": true,
          "internalType": "address",
          "name": "source",
          "type": "address"
        },
        {
          "indexed": false,
          "internalType": "uint256",
          "name": "amount",
          "type": "uint256"
        }
      ],
      "name": "FundsReceived",
      "type": "event"
    },
    {
      "anonymous": false,
      "inputs": [
        {
          "indexed": true,
          "internalType": "address",
          "name": "newAddress",
          "type": "address"
        },
        {
          "indexed": true,
          "internalType": "address",
          "name": "changedBy",
          "type": "address"
        }
      ],
      "name": "FundsRecipientChanged",
      "type": "event"
    },
    {
      "anonymous": false,
      "inputs": [
        {
          "indexed": true,
          "internalType": "address",
          "name": "withdrawnBy",
          "type": "address"
        },
        {
          "indexed": true,
          "internalType": "address",
          "name": "withdrawnTo",
          "type": "address"
        },
        {
          "indexed": false,
          "internalType": "uint256",
          "name": "amount",
          "type": "uint256"
        },
        {
          "indexed": false,
          "internalType": "address",
          "name": "feeRecipient",
          "type": "address"
        },
        {
          "indexed": false,
          "internalType": "uint256",
          "name": "feeAmount",
          "type": "uint256"
        }
      ],
      "name": "FundsWithdrawn",
      "type": "event"
    },
    {
      "anonymous": false,
      "inputs": [
        {
          "indexed": false,
          "internalType": "uint256",
          "name": "_tokenId",
          "type": "uint256"
        }
      ],
      "name": "MetadataUpdate",
      "type": "event"
    },
    {
      "anonymous": false,
      "inputs": [
        {
          "indexed": true,
          "internalType": "address",
          "name": "sender",
          "type": "address"
        },
        {
          "indexed": true,
          "internalType": "address",
          "name": "tokenContract",
          "type": "address"
        },
        {
          "indexed": true,
          "internalType": "uint256",
          "name": "tokenId",
          "type": "uint256"
        },
        {
          "indexed": false,
          "internalType": "uint256",
          "name": "quantity",
          "type": "uint256"
        },
        {
          "indexed": false,
          "internalType": "string",
          "name": "comment",
          "type": "string"
        }
      ],
      "name": "MintComment",
      "type": "event"
    },
    {
      "anonymous": false,
      "inputs": [
        {
          "indexed": false,
          "internalType": "uint256",
          "name": "mintFeeAmount",
          "type": "uint256"
        },
        {
          "indexed": false,
          "internalType": "address",
          "name": "mintFeeRecipient",
          "type": "address"
        },
        {
          "indexed": false,
          "internalType": "bool",
          "name": "success",
          "type": "bool"
        }
      ],
      "name": "MintFeePayout",
      "type": "event"
    },
    {
      "anonymous": false,
      "inputs": [
        {
          "indexed": true,
          "internalType": "address",
          "name": "sender",
          "type": "address"
        },
        {
          "indexed": false,
          "internalType": "uint256",
          "name": "numberOfMints",
          "type": "uint256"
        }
      ],
      "name": "OpenMintFinalized",
      "type": "event"
    },
    {
      "anonymous": false,
      "inputs": [
        {
          "indexed": true,
          "internalType": "address",
          "name": "previousOwner",
          "type": "address"
        },
        {
          "indexed": true,
          "internalType": "address",
          "name": "potentialNewOwner",
          "type": "address"
        }
      ],
      "name": "OwnerCanceled",
      "type": "event"
    },
    {
      "anonymous": false,
      "inputs": [
        {
          "indexed": true,
          "internalType": "address",
          "name": "previousOwner",
          "type": "address"
        },
        {
          "indexed": true,
          "internalType": "address",
          "name": "potentialNewOwner",
          "type": "address"
        }
      ],
      "name": "OwnerPending",
      "type": "event"
    },
    {
      "anonymous": false,
      "inputs": [
        {
          "indexed": true,
          "internalType": "address",
          "name": "previousOwner",
          "type": "address"
        },
        {
          "indexed": true,
          "internalType": "address",
          "name": "newOwner",
          "type": "address"
        }
      ],
      "name": "OwnershipTransferred",
      "type": "event"
    },
    {
      "anonymous": false,
      "inputs": [
        {
          "indexed": true,
          "internalType": "bytes32",
          "name": "role",
          "type": "bytes32"
        },
        {
          "indexed": true,
          "internalType": "bytes32",
          "name": "previousAdminRole",
          "type": "bytes32"
        },
        {
          "indexed": true,
          "internalType": "bytes32",
          "name": "newAdminRole",
          "type": "bytes32"
        }
      ],
      "name": "RoleAdminChanged",
      "type": "event"
    },
    {
      "anonymous": false,
      "inputs": [
        {
          "indexed": true,
          "internalType": "bytes32",
          "name": "role",
          "type": "bytes32"
        },
        {
          "indexed": true,
          "internalType": "address",
          "name": "account",
          "type": "address"
        },
        {
          "indexed": true,
          "internalType": "address",
          "name": "sender",
          "type": "address"
        }
      ],
      "name": "RoleGranted",
      "type": "event"
    },
    {
      "anonymous": false,
      "inputs": [
        {
          "indexed": true,
          "internalType": "bytes32",
          "name": "role",
          "type": "bytes32"
        },
        {
          "indexed": true,
          "internalType": "address",
          "name": "account",
          "type": "address"
        },
        {
          "indexed": true,
          "internalType": "address",
          "name": "sender",
          "type": "address"
        }
      ],
      "name": "RoleRevoked",
      "type": "event"
    },
    {
      "anonymous": false,
      "inputs": [
        {
          "indexed": true,
          "internalType": "address",
          "name": "to",
          "type": "address"
        },
        {
          "indexed": true,
          "internalType": "uint256",
          "name": "quantity",
          "type": "uint256"
        },
        {
          "indexed": true,
          "internalType": "uint256",
          "name": "pricePerToken",
          "type": "uint256"
        },
        {
          "indexed": false,
          "internalType": "uint256",
          "name": "firstPurchasedTokenId",
          "type": "uint256"
        }
      ],
      "name": "Sale",
      "type": "event"
    },
    {
      "anonymous": false,
      "inputs": [
        {
          "indexed": true,
          "internalType": "address",
          "name": "changedBy",
          "type": "address"
        }
      ],
      "name": "SalesConfigChanged",
      "type": "event"
    },
    {
      "anonymous": false,
      "inputs": [
        {
          "indexed": true,
          "internalType": "address",
          "name": "from",
          "type": "address"
        },
        {
          "indexed": true,
          "internalType": "address",
          "name": "to",
          "type": "address"
        },
        {
          "indexed": true,
          "internalType": "uint256",
          "name": "tokenId",
          "type": "uint256"
        }
      ],
      "name": "Transfer",
      "type": "event"
    },
    {
      "anonymous": false,
      "inputs": [
        {
          "indexed": false,
          "internalType": "address",
          "name": "sender",
          "type": "address"
        },
        {
          "indexed": false,
          "internalType": "contract IMetadataRenderer",
          "name": "renderer",
          "type": "address"
        }
      ],
      "name": "UpdatedMetadataRenderer",
      "type": "event"
    },
    {
      "anonymous": false,
      "inputs": [
        {
          "indexed": true,
          "internalType": "address",
          "name": "implementation",
          "type": "address"
        }
      ],
      "name": "Upgraded",
      "type": "event"
    },
    {
      "inputs": [],
      "name": "DEFAULT_ADMIN_ROLE",
      "outputs": [
        {
          "internalType": "bytes32",
          "name": "",
          "type": "bytes32"
        }
      ],
      "stateMutability": "view",
      "type": "function"
    },
    {
      "inputs": [],
      "name": "MINTER_ROLE",
      "outputs": [
        {
          "internalType": "bytes32",
          "name": "",
          "type": "bytes32"
        }
      ],
      "stateMutability": "view",
      "type": "function"
    },
    {
      "inputs": [],
      "name": "SALES_MANAGER_ROLE",
      "outputs": [
        {
          "internalType": "bytes32",
          "name": "",
          "type": "bytes32"
        }
      ],
      "stateMutability": "view",
      "type": "function"
    },
    {
      "inputs": [
        {
          "internalType": "address",
          "name": "recipient",
          "type": "address"
        },
        {
          "internalType": "uint256",
          "name": "quantity",
          "type": "uint256"
        }
      ],
      "name": "adminMint",
      "outputs": [
        {
          "internalType": "uint256",
          "name": "",
          "type": "uint256"
        }
      ],
      "stateMutability": "nonpayable",
      "type": "function"
    },
    {
      "inputs": [
        {
          "internalType": "address[]",
          "name": "recipients",
          "type": "address[]"
        }
      ],
      "name": "adminMintAirdrop",
      "outputs": [
        {
          "internalType": "uint256",
          "name": "",
          "type": "uint256"
        }
      ],
      "stateMutability": "nonpayable",
      "type": "function"
    },
    {
      "inputs": [
        {
          "internalType": "address",
          "name": "to",
          "type": "address"
        },
        {
          "internalType": "uint256",
          "name": "tokenId",
          "type": "uint256"
        }
      ],
      "name": "approve",
      "outputs": [],
      "stateMutability": "nonpayable",
      "type": "function"
    },
    {
      "inputs": [
        {
          "internalType": "address",
          "name": "owner",
          "type": "address"
        }
      ],
      "name": "balanceOf",
      "outputs": [
        {
          "internalType": "uint256",
          "name": "",
          "type": "uint256"
        }
      ],
      "stateMutability": "view",
      "type": "function"
    },
    {
      "inputs": [
        {
          "internalType": "uint256",
          "name": "tokenId",
          "type": "uint256"
        }
      ],
      "name": "burn",
      "outputs": [],
      "stateMutability": "nonpayable",
      "type": "function"
    },
    {
      "inputs": [
        {
          "internalType": "bytes",
          "name": "data",
          "type": "bytes"
        }
      ],
      "name": "callMetadataRenderer",
      "outputs": [
        {
          "internalType": "bytes",
          "name": "",
          "type": "bytes"
        }
      ],
      "stateMutability": "nonpayable",
      "type": "function"
    },
    {
      "inputs": [
        {
          "internalType": "uint256",
          "name": "numTokens",
          "type": "uint256"
        }
      ],
      "name": "computeFreeMintRewards",
      "outputs": [
        {
          "components": [
            {
              "internalType": "uint256",
              "name": "creatorReward",
              "type": "uint256"
            },
            {
              "internalType": "uint256",
              "name": "createReferralReward",
              "type": "uint256"
            },
            {
              "internalType": "uint256",
              "name": "mintReferralReward",
              "type": "uint256"
            },
            {
              "internalType": "uint256",
              "name": "firstMinterReward",
              "type": "uint256"
            },
            {
              "internalType": "uint256",
              "name": "zoraReward",
              "type": "uint256"
            }
          ],
          "internalType": "struct RewardsSettings",
          "name": "",
          "type": "tuple"
        }
      ],
      "stateMutability": "pure",
      "type": "function"
    },
    {
      "inputs": [
        {
          "internalType": "uint256",
          "name": "numTokens",
          "type": "uint256"
        }
      ],
      "name": "computePaidMintRewards",
      "outputs": [
        {
          "components": [
            {
              "internalType": "uint256",
              "name": "creatorReward",
              "type": "uint256"
            },
            {
              "internalType": "uint256",
              "name": "createReferralReward",
              "type": "uint256"
            },
            {
              "internalType": "uint256",
              "name": "mintReferralReward",
              "type": "uint256"
            },
            {
              "internalType": "uint256",
              "name": "firstMinterReward",
              "type": "uint256"
            },
            {
              "internalType": "uint256",
              "name": "zoraReward",
              "type": "uint256"
            }
          ],
          "internalType": "struct RewardsSettings",
          "name": "",
          "type": "tuple"
        }
      ],
      "stateMutability": "pure",
      "type": "function"
    },
    {
      "inputs": [
        {
          "internalType": "uint256",
          "name": "numTokens",
          "type": "uint256"
        }
      ],
      "name": "computeTotalReward",
      "outputs": [
        {
          "internalType": "uint256",
          "name": "",
          "type": "uint256"
        }
      ],
      "stateMutability": "pure",
      "type": "function"
    },
    {
      "inputs": [],
      "name": "config",
      "outputs": [
        {
          "internalType": "contract IMetadataRenderer",
          "name": "metadataRenderer",
          "type": "address"
        },
        {
          "internalType": "uint64",
          "name": "editionSize",
          "type": "uint64"
        },
        {
          "internalType": "uint16",
          "name": "royaltyBPS",
          "type": "uint16"
        },
        {
          "internalType": "address payable",
          "name": "fundsRecipient",
          "type": "address"
        }
      ],
      "stateMutability": "view",
      "type": "function"
    },
    {
      "inputs": [],
      "name": "contractURI",
      "outputs": [
        {
          "internalType": "string",
          "name": "",
          "type": "string"
        }
      ],
      "stateMutability": "view",
      "type": "function"
    },
    {
      "inputs": [],
      "name": "contractVersion",
      "outputs": [
        {
          "internalType": "uint32",
          "name": "",
          "type": "uint32"
        }
      ],
      "stateMutability": "view",
      "type": "function"
    },
    {
      "inputs": [],
      "name": "createReferral",
      "outputs": [
        {
          "internalType": "address",
          "name": "",
          "type": "address"
        }
      ],
      "stateMutability": "view",
      "type": "function"
    },
    {
      "inputs": [],
      "name": "factoryUpgradeGate",
      "outputs": [
        {
          "internalType": "contract IFactoryUpgradeGate",
          "name": "",
          "type": "address"
        }
      ],
      "stateMutability": "view",
      "type": "function"
    },
    {
      "inputs": [],
      "name": "finalizeOpenEdition",
      "outputs": [],
      "stateMutability": "nonpayable",
      "type": "function"
    },
    {
      "inputs": [
        {
          "internalType": "uint256",
          "name": "tokenId",
          "type": "uint256"
        }
      ],
      "name": "getApproved",
      "outputs": [
        {
          "internalType": "address",
          "name": "",
          "type": "address"
        }
      ],
      "stateMutability": "view",
      "type": "function"
    },
    {
      "inputs": [
        {
          "internalType": "bytes32",
          "name": "role",
          "type": "bytes32"
        }
      ],
      "name": "getRoleAdmin",
      "outputs": [
        {
          "internalType": "bytes32",
          "name": "",
          "type": "bytes32"
        }
      ],
      "stateMutability": "view",
      "type": "function"
    },
    {
      "inputs": [
        {
          "internalType": "bytes32",
          "name": "role",
          "type": "bytes32"
        },
        {
          "internalType": "address",
          "name": "account",
          "type": "address"
        }
      ],
      "name": "grantRole",
      "outputs": [],
      "stateMutability": "nonpayable",
      "type": "function"
    },
    {
      "inputs": [
        {
          "internalType": "bytes32",
          "name": "role",
          "type": "bytes32"
        },
        {
          "internalType": "address",
          "name": "account",
          "type": "address"
        }
      ],
      "name": "hasRole",
      "outputs": [
        {
          "internalType": "bool",
          "name": "",
          "type": "bool"
        }
      ],
      "stateMutability": "view",
      "type": "function"
    },
    {
      "inputs": [
        {
          "internalType": "string",
          "name": "_contractName",
          "type": "string"
        },
        {
          "internalType": "string",
          "name": "_contractSymbol",
          "type": "string"
        },
        {
          "internalType": "address",
          "name": "_initialOwner",
          "type": "address"
        },
        {
          "internalType": "address payable",
          "name": "_fundsRecipient",
          "type": "address"
        },
        {
          "internalType": "uint64",
          "name": "_editionSize",
          "type": "uint64"
        },
        {
          "internalType": "uint16",
          "name": "_royaltyBPS",
          "type": "uint16"
        },
        {
          "internalType": "bytes[]",
          "name": "_setupCalls",
          "type": "bytes[]"
        },
        {
          "internalType": "contract IMetadataRenderer",
          "name": "_metadataRenderer",
          "type": "address"
        },
        {
          "internalType": "bytes",
          "name": "_metadataRendererInit",
          "type": "bytes"
        },
        {
          "internalType": "address",
          "name": "_createReferral",
          "type": "address"
        }
      ],
      "name": "initialize",
      "outputs": [],
      "stateMutability": "nonpayable",
      "type": "function"
    },
    {
      "inputs": [
        {
          "internalType": "address",
          "name": "user",
          "type": "address"
        }
      ],
      "name": "isAdmin",
      "outputs": [
        {
          "internalType": "bool",
          "name": "",
          "type": "bool"
        }
      ],
      "stateMutability": "view",
      "type": "function"
    },
    {
      "inputs": [
        {
          "internalType": "address",
          "name": "nftOwner",
          "type": "address"
        },
        {
          "internalType": "address",
          "name": "operator",
          "type": "address"
        }
      ],
      "name": "isApprovedForAll",
      "outputs": [
        {
          "internalType": "bool",
          "name": "",
          "type": "bool"
        }
      ],
      "stateMutability": "view",
      "type": "function"
    },
    {
      "inputs": [],
      "name": "metadataRenderer",
      "outputs": [
        {
          "internalType": "contract IMetadataRenderer",
          "name": "",
          "type": "address"
        }
      ],
      "stateMutability": "view",
      "type": "function"
    },
    {
      "inputs": [
        {
          "internalType": "address",
          "name": "recipient",
          "type": "address"
        },
        {
          "internalType": "uint256",
          "name": "quantity",
          "type": "uint256"
        },
        {
          "internalType": "string",
          "name": "comment",
          "type": "string"
        },
        {
          "internalType": "address",
          "name": "mintReferral",
          "type": "address"
        }
      ],
      "name": "mintWithRewards",
      "outputs": [
        {
          "internalType": "uint256",
          "name": "",
          "type": "uint256"
        }
      ],
      "stateMutability": "payable",
      "type": "function"
    },
    {
      "inputs": [
        {
          "internalType": "address",
          "name": "minter",
          "type": "address"
        }
      ],
      "name": "mintedPerAddress",
      "outputs": [
        {
          "components": [
            {
              "internalType": "uint256",
              "name": "totalMints",
              "type": "uint256"
            },
            {
              "internalType": "uint256",
              "name": "presaleMints",
              "type": "uint256"
            },
            {
              "internalType": "uint256",
              "name": "publicMints",
              "type": "uint256"
            }
          ],
          "internalType": "struct IERC721Drop.AddressMintDetails",
          "name": "",
          "type": "tuple"
        }
      ],
      "stateMutability": "view",
      "type": "function"
    },
    {
      "inputs": [
        {
          "internalType": "bytes[]",
          "name": "data",
          "type": "bytes[]"
        }
      ],
      "name": "multicall",
      "outputs": [
        {
          "internalType": "bytes[]",
          "name": "results",
          "type": "bytes[]"
        }
      ],
      "stateMutability": "nonpayable",
      "type": "function"
    },
    {
      "inputs": [],
      "name": "name",
      "outputs": [
        {
          "internalType": "string",
          "name": "",
          "type": "string"
        }
      ],
      "stateMutability": "view",
      "type": "function"
    },
    {
      "inputs": [],
      "name": "owner",
      "outputs": [
        {
          "internalType": "address",
          "name": "",
          "type": "address"
        }
      ],
      "stateMutability": "view",
      "type": "function"
    },
    {
      "inputs": [
        {
          "internalType": "uint256",
          "name": "tokenId",
          "type": "uint256"
        }
      ],
      "name": "ownerOf",
      "outputs": [
        {
          "internalType": "address",
          "name": "",
          "type": "address"
        }
      ],
      "stateMutability": "view",
      "type": "function"
    },
    {
      "inputs": [
        {
          "internalType": "address",
          "name": "",
          "type": "address"
        }
      ],
      "name": "presaleMintsByAddress",
      "outputs": [
        {
          "internalType": "uint256",
          "name": "",
          "type": "uint256"
        }
      ],
      "stateMutability": "view",
      "type": "function"
    },
    {
      "inputs": [],
      "name": "proxiableUUID",
      "outputs": [
        {
          "internalType": "bytes32",
          "name": "",
          "type": "bytes32"
        }
      ],
      "stateMutability": "view",
      "type": "function"
    },
    {
      "inputs": [
        {
          "internalType": "uint256",
          "name": "quantity",
          "type": "uint256"
        }
      ],
      "name": "purchase",
      "outputs": [
        {
          "internalType": "uint256",
          "name": "",
          "type": "uint256"
        }
      ],
      "stateMutability": "payable",
      "type": "function"
    },
    {
      "inputs": [
        {
          "internalType": "uint256",
          "name": "quantity",
          "type": "uint256"
        },
        {
          "internalType": "uint256",
          "name": "maxQuantity",
          "type": "uint256"
        },
        {
          "internalType": "uint256",
          "name": "pricePerToken",
          "type": "uint256"
        },
        {
          "internalType": "bytes32[]",
          "name": "merkleProof",
          "type": "bytes32[]"
        }
      ],
      "name": "purchasePresale",
      "outputs": [
        {
          "internalType": "uint256",
          "name": "",
          "type": "uint256"
        }
      ],
      "stateMutability": "payable",
      "type": "function"
    },
    {
      "inputs": [
        {
          "internalType": "uint256",
          "name": "quantity",
          "type": "uint256"
        },
        {
          "internalType": "uint256",
          "name": "maxQuantity",
          "type": "uint256"
        },
        {
          "internalType": "uint256",
          "name": "pricePerToken",
          "type": "uint256"
        },
        {
          "internalType": "bytes32[]",
          "name": "merkleProof",
          "type": "bytes32[]"
        },
        {
          "internalType": "string",
          "name": "comment",
          "type": "string"
        }
      ],
      "name": "purchasePresaleWithComment",
      "outputs": [
        {
          "internalType": "uint256",
          "name": "",
          "type": "uint256"
        }
      ],
      "stateMutability": "payable",
      "type": "function"
    },
    {
      "inputs": [
        {
          "internalType": "uint256",
          "name": "quantity",
          "type": "uint256"
        },
        {
          "internalType": "uint256",
          "name": "maxQuantity",
          "type": "uint256"
        },
        {
          "internalType": "uint256",
          "name": "pricePerToken",
          "type": "uint256"
        },
        {
          "internalType": "bytes32[]",
          "name": "merkleProof",
          "type": "bytes32[]"
        },
        {
          "internalType": "string",
          "name": "comment",
          "type": "string"
        },
        {
          "internalType": "address",
          "name": "mintReferral",
          "type": "address"
        }
      ],
      "name": "purchasePresaleWithRewards",
      "outputs": [
        {
          "internalType": "uint256",
          "name": "",
          "type": "uint256"
        }
      ],
      "stateMutability": "payable",
      "type": "function"
    },
    {
      "inputs": [
        {
          "internalType": "uint256",
          "name": "quantity",
          "type": "uint256"
        },
        {
          "internalType": "string",
          "name": "comment",
          "type": "string"
        }
      ],
      "name": "purchaseWithComment",
      "outputs": [
        {
          "internalType": "uint256",
          "name": "",
          "type": "uint256"
        }
      ],
      "stateMutability": "payable",
      "type": "function"
    },
    {
      "inputs": [
        {
          "internalType": "address",
          "name": "recipient",
          "type": "address"
        },
        {
          "internalType": "uint256",
          "name": "quantity",
          "type": "uint256"
        },
        {
          "internalType": "string",
          "name": "comment",
          "type": "string"
        }
      ],
      "name": "purchaseWithRecipient",
      "outputs": [
        {
          "internalType": "uint256",
          "name": "",
          "type": "uint256"
        }
      ],
      "stateMutability": "payable",
      "type": "function"
    },
    {
      "inputs": [
        {
          "internalType": "bytes32",
          "name": "role",
          "type": "bytes32"
        },
        {
          "internalType": "address",
          "name": "account",
          "type": "address"
        }
      ],
      "name": "renounceRole",
      "outputs": [],
      "stateMutability": "nonpayable",
      "type": "function"
    },
    {
      "inputs": [
        {
          "internalType": "bytes32",
          "name": "role",
          "type": "bytes32"
        },
        {
          "internalType": "address",
          "name": "account",
          "type": "address"
        }
      ],
      "name": "revokeRole",
      "outputs": [],
      "stateMutability": "nonpayable",
      "type": "function"
    },
    {
      "inputs": [
        {
          "internalType": "uint256",
          "name": "",
          "type": "uint256"
        },
        {
          "internalType": "uint256",
          "name": "_salePrice",
          "type": "uint256"
        }
      ],
      "name": "royaltyInfo",
      "outputs": [
        {
          "internalType": "address",
          "name": "receiver",
          "type": "address"
        },
        {
          "internalType": "uint256",
          "name": "royaltyAmount",
          "type": "uint256"
        }
      ],
      "stateMutability": "view",
      "type": "function"
    },
    {
      "inputs": [],
      "name": "royaltyMintSchedule",
      "outputs": [
        {
          "internalType": "uint32",
          "name": "",
          "type": "uint32"
        }
      ],
      "stateMutability": "view",
      "type": "function"
    },
    {
      "inputs": [
        {
          "internalType": "address",
          "name": "from",
          "type": "address"
        },
        {
          "internalType": "address",
          "name": "to",
          "type": "address"
        },
        {
          "internalType": "uint256",
          "name": "tokenId",
          "type": "uint256"
        }
      ],
      "name": "safeTransferFrom",
      "outputs": [],
      "stateMutability": "nonpayable",
      "type": "function"
    },
    {
      "inputs": [
        {
          "internalType": "address",
          "name": "from",
          "type": "address"
        },
        {
          "internalType": "address",
          "name": "to",
          "type": "address"
        },
        {
          "internalType": "uint256",
          "name": "tokenId",
          "type": "uint256"
        },
        {
          "internalType": "bytes",
          "name": "_data",
          "type": "bytes"
        }
      ],
      "name": "safeTransferFrom",
      "outputs": [],
      "stateMutability": "nonpayable",
      "type": "function"
    },
    {
      "inputs": [],
      "name": "saleDetails",
      "outputs": [
        {
          "components": [
            {
              "internalType": "bool",
              "name": "publicSaleActive",
              "type": "bool"
            },
            {
              "internalType": "bool",
              "name": "presaleActive",
              "type": "bool"
            },
            {
              "internalType": "uint256",
              "name": "publicSalePrice",
              "type": "uint256"
            },
            {
              "internalType": "uint64",
              "name": "publicSaleStart",
              "type": "uint64"
            },
            {
              "internalType": "uint64",
              "name": "publicSaleEnd",
              "type": "uint64"
            },
            {
              "internalType": "uint64",
              "name": "presaleStart",
              "type": "uint64"
            },
            {
              "internalType": "uint64",
              "name": "presaleEnd",
              "type": "uint64"
            },
            {
              "internalType": "bytes32",
              "name": "presaleMerkleRoot",
              "type": "bytes32"
            },
            {
              "internalType": "uint256",
              "name": "maxSalePurchasePerAddress",
              "type": "uint256"
            },
            {
              "internalType": "uint256",
              "name": "totalMinted",
              "type": "uint256"
            },
            {
              "internalType": "uint256",
              "name": "maxSupply",
              "type": "uint256"
            }
          ],
          "internalType": "struct IERC721Drop.SaleDetails",
          "name": "",
          "type": "tuple"
        }
      ],
      "stateMutability": "view",
      "type": "function"
    },
    {
      "inputs": [],
      "name": "salesConfig",
      "outputs": [
        {
          "internalType": "uint104",
          "name": "publicSalePrice",
          "type": "uint104"
        },
        {
          "internalType": "uint32",
          "name": "maxSalePurchasePerAddress",
          "type": "uint32"
        },
        {
          "internalType": "uint64",
          "name": "publicSaleStart",
          "type": "uint64"
        },
        {
          "internalType": "uint64",
          "name": "publicSaleEnd",
          "type": "uint64"
        },
        {
          "internalType": "uint64",
          "name": "presaleStart",
          "type": "uint64"
        },
        {
          "internalType": "uint64",
          "name": "presaleEnd",
          "type": "uint64"
        },
        {
          "internalType": "bytes32",
          "name": "presaleMerkleRoot",
          "type": "bytes32"
        }
      ],
      "stateMutability": "view",
      "type": "function"
    },
    {
      "inputs": [
        {
          "internalType": "address",
          "name": "operator",
          "type": "address"
        },
        {
          "internalType": "bool",
          "name": "approved",
          "type": "bool"
        }
      ],
      "name": "setApprovalForAll",
      "outputs": [],
      "stateMutability": "nonpayable",
      "type": "function"
    },
    {
      "inputs": [
        {
          "internalType": "address payable",
          "name": "newRecipientAddress",
          "type": "address"
        }
      ],
      "name": "setFundsRecipient",
      "outputs": [],
      "stateMutability": "nonpayable",
      "type": "function"
    },
    {
      "inputs": [
        {
          "internalType": "contract IMetadataRenderer",
          "name": "newRenderer",
          "type": "address"
        },
        {
          "internalType": "bytes",
          "name": "setupRenderer",
          "type": "bytes"
        }
      ],
      "name": "setMetadataRenderer",
      "outputs": [],
      "stateMutability": "nonpayable",
      "type": "function"
    },
    {
      "inputs": [
        {
          "internalType": "address",
          "name": "newOwner",
          "type": "address"
        }
      ],
      "name": "setOwner",
      "outputs": [],
      "stateMutability": "nonpayable",
      "type": "function"
    },
    {
      "inputs": [
        {
          "internalType": "uint104",
          "name": "publicSalePrice",
          "type": "uint104"
        },
        {
          "internalType": "uint32",
          "name": "maxSalePurchasePerAddress",
          "type": "uint32"
        },
        {
          "internalType": "uint64",
          "name": "publicSaleStart",
          "type": "uint64"
        },
        {
          "internalType": "uint64",
          "name": "publicSaleEnd",
          "type": "uint64"
        },
        {
          "internalType": "uint64",
          "name": "presaleStart",
          "type": "uint64"
        },
        {
          "internalType": "uint64",
          "name": "presaleEnd",
          "type": "uint64"
        },
        {
          "internalType": "bytes32",
          "name": "presaleMerkleRoot",
          "type": "bytes32"
        }
      ],
      "name": "setSaleConfiguration",
      "outputs": [],
      "stateMutability": "nonpayable",
      "type": "function"
    },
    {
      "inputs": [
        {
          "internalType": "bytes4",
          "name": "interfaceId",
          "type": "bytes4"
        }
      ],
      "name": "supportsInterface",
      "outputs": [
        {
          "internalType": "bool",
          "name": "",
          "type": "bool"
        }
      ],
      "stateMutability": "view",
      "type": "function"
    },
    {
      "inputs": [],
      "name": "symbol",
      "outputs": [
        {
          "internalType": "string",
          "name": "",
          "type": "string"
        }
      ],
      "stateMutability": "view",
      "type": "function"
    },
    {
      "inputs": [
        {
          "internalType": "uint256",
          "name": "tokenId",
          "type": "uint256"
        }
      ],
      "name": "tokenURI",
      "outputs": [
        {
          "internalType": "string",
          "name": "",
          "type": "string"
        }
      ],
      "stateMutability": "view",
      "type": "function"
    },
    {
      "inputs": [],
      "name": "totalSupply",
      "outputs": [
        {
          "internalType": "uint256",
          "name": "",
          "type": "uint256"
        }
      ],
      "stateMutability": "view",
      "type": "function"
    },
    {
      "inputs": [
        {
          "internalType": "address",
          "name": "from",
          "type": "address"
        },
        {
          "internalType": "address",
          "name": "to",
          "type": "address"
        },
        {
          "internalType": "uint256",
          "name": "tokenId",
          "type": "uint256"
        }
      ],
      "name": "transferFrom",
      "outputs": [],
      "stateMutability": "nonpayable",
      "type": "function"
    },
    {
      "inputs": [
        {
          "internalType": "address",
          "name": "recipient",
          "type": "address"
        }
      ],
      "name": "updateCreateReferral",
      "outputs": [],
      "stateMutability": "nonpayable",
      "type": "function"
    },
    {
      "inputs": [
        {
          "internalType": "uint32",
          "name": "newSchedule",
          "type": "uint32"
        }
      ],
      "name": "updateRoyaltyMintSchedule",
      "outputs": [],
      "stateMutability": "nonpayable",
      "type": "function"
    },
    {
      "inputs": [
        {
          "internalType": "address",
          "name": "newImplementation",
          "type": "address"
        }
      ],
      "name": "upgradeTo",
      "outputs": [],
      "stateMutability": "nonpayable",
      "type": "function"
    },
    {
      "inputs": [
        {
          "internalType": "address",
          "name": "newImplementation",
          "type": "address"
        },
        {
          "internalType": "bytes",
          "name": "data",
          "type": "bytes"
        }
      ],
      "name": "upgradeToAndCall",
      "outputs": [],
      "stateMutability": "payable",
      "type": "function"
    },
    {
      "inputs": [],
      "name": "withdraw",
      "outputs": [],
      "stateMutability": "nonpayable",
      "type": "function"
    },
    {
      "inputs": [
        {
          "internalType": "address",
          "name": "to",
          "type": "address"
        },
        {
          "internalType": "uint256",
          "name": "amount",
          "type": "uint256"
        }
      ],
      "name": "withdrawRewards",
      "outputs": [],
      "stateMutability": "nonpayable",
      "type": "function"
    },
    {
      "inputs": [],
      "name": "zoraERC721TransferHelper",
      "outputs": [
        {
          "internalType": "address",
          "name": "",
          "type": "address"
        }
      ],
      "stateMutability": "view",
      "type": "function"
    },
    {
      "inputs": [
        {
          "internalType": "uint256",
          "name": "quantity",
          "type": "uint256"
        }
      ],
      "name": "zoraFeeForAmount",
      "outputs": [
        {
          "internalType": "address payable",
          "name": "recipient",
          "type": "address"
        },
        {
          "internalType": "uint256",
          "name": "fee",
          "type": "uint256"
        }
      ],
      "stateMutability": "view",
      "type": "function"
    },
    {
      "stateMutability": "payable",
      "type": "receive"
    }
  ],
  "bytecode": {
    "object": "0x610200346200031257601f62005fc738819003918201601f19168301916001600160401b03831184841017620003175780849260a09460405283398101031262000312576200004e816200032d565b6020820151916001600160a01b03908184168403620003125760408101519060608101519280841691828503620003125760806200008d91016200032d565b30608052600e60a052168015801562000309575b620002f75760e05260c0526101009360088552610120936203345085526101407ff0887ba65ee2024ea881d91b74c2450ef19e1557f03bed3ea9f16b037cbe2dc98152610160907f5ebbf78043a2215b522b1366a193ec74dd1f54e441e841a87b9653246a9c49a6825260005460ff8160081c1680600014620002ec57303b155b1562000290571590816200027d575b506101809384526101a09485526101c09586526101e09687526200026c575b60405196615c849889620003438a3960805189818161128c01528181611c290152611d77015260a05189612311015260c051898181614b9701528181614c1f01528181614d3201528181614d5d01528181614d8501528181614e3c01528181614ec801528181614f7601528181614fa20152614fca015260e051898181612bb801528181614bb901528181614cd801528181614e5e0152614f170152518881816150630152615284015251876116fe01525186818161265901528181612ac30152612c7d015251858181610a23015281816117e901528181612c1d01528181612ee801526155de0152518481816105840152614870015251838181610e35015281816113310152611cce01525182612dd501525181612e060152f35b61ff00196000541660005562000150565b61ffff1916610101176000553862000131565b60405162461bcd60e51b815260206004820152602e60248201527f496e697469616c697a61626c653a20636f6e747261637420697320616c72656160448201526d191e481a5b9a5d1a585b1a5e995960921b6064820152608490fd5b60ff82161562000122565b604051632d87658960e01b8152600490fd5b508115620000a1565b600080fd5b634e487b7160e01b600052604160045260246000fd5b51906001600160a01b0382168203620003125756fe60806040526004361015610023575b361561001957600080fd5b610021615a9f565b005b60003560e01c8062cd4b5e1461054a57806301ffc9a71461054157806303ee27331461053857806306fdde031461052f578063081812fc14610526578063095ea7b31461051d57806310a7eb5d1461051457806313af40351461050b57806318160ddd146105025780631d2c0b38146104f957806323b872dd146104f0578063248a9ca3146104e757806324d7806c146104de57806325024a2b146104d557806325eb54c6146104cc5780632a55205a146104c35780632e706b5a146104ba5780632f2ff15d146104b15780633474a4a6146104a857806336568abe1461049f5780633659cfe6146104965780633bcdcc871461048d5780633ccfd60b146104845780634132239b1461047b57806341e96eb11461047257806342842e0e1461046957806342966c681461046057806345368181146104575780634f1ef2861461044e57806352d1902d146104455780635b94e9021461043c5780635c0460841461043357806361fea7681461042a57806362bf43f0146104215780636352211e146104185780636dc45b221461040f578063703199701461040657806370a08231146103fd578063722933f7146103f457806379502c55146103eb5780638b338c7c146103e25780638da5cb5b146103d957806391d14854146103d057806395d89b41146103c7578063a0a8e460146103be578063a217fddf146103b5578063a22cb465146103ac578063ac9650d8146103a3578063ae6e78751461039a578063b88d4fde14610391578063b8ae5a2c14610388578063b9e7a5841461037f578063c87b56dd14610376578063d0bd3c6b1461036d578063d234255c14610364578063d445b9781461035b578063d539139314610352578063d547741f14610349578063d6ef7af014610340578063e26bd34314610337578063e58306f91461032e578063e8a3d48514610325578063e985e9c51461031c578063ee37be3914610313578063efef39a11461030a5763ffdb71630361000e57610305612e7b565b61000e565b50610305612e2f565b50610305612db9565b50610305612d7a565b50610305612cf3565b50610305612c40565b50610305612c04565b50610305612b2a565b50610305612ae6565b50610305612aaa565b506103056129ab565b50610305612935565b506103056128c3565b506103056127ea565b5061030561274c565b50610305612628565b506103056125d1565b506103056124ba565b50610305612441565b5061030561235c565b50610305612335565b506103056122f3565b5061030561224b565b506103056121fe565b506103056121d5565b50610305612160565b5061030561210b565b506103056120eb565b5061030561208b565b50610305612062565b5061030561203c565b5061030561200b565b50610305611fe0565b50610305611fa0565b50610305611f45565b50610305611e8a565b50610305611d5b565b50610305611be5565b50610305611b1a565b506103056118a8565b5061030561187f565b506103056117d4565b50610305611790565b506103056116b7565b50610305611552565b50610305611262565b506103056111cb565b506103056110b0565b50610305610f34565b50610305610e93565b50610305610e59565b50610305610e14565b50610305610cb2565b50610305610c2b565b50610305610bfa565b50610305610be2565b50610305610b3f565b50610305610b17565b50610305610ab9565b506103056109e3565b506103056108fd565b5061030561089f565b506103056107bd565b506103056106da565b506103056105ba565b50610305610563565b600091031261055e57565b600080fd5b503461055e57600036600319011261055e5760206040516001600160a01b037f0000000000000000000000000000000000000000000000000000000000000000168152f35b6001600160e01b031981160361055e57565b503461055e57602036600319011261055e576106256004356105db816105a8565b63ffffffff60e01b16637965db0b60e01b811490811561066d575b811561065c575b811561064b575b811561063a575b8115610629575b5060405190151581529081906020820190565b0390f35b630d4ae22960e11b14905038610612565b632483248360e11b8114915061060b565b63152a902d60e11b81149150610604565b638da5cb5b60e01b811491506105fd565b90506380ac58cd60e01b8114801561069d575b801561068d575b906105f6565b506301ffc9a760e01b8114610687565b50635b5e139f60e01b8114610680565b9181601f8401121561055e578235916001600160401b03831161055e576020838186019501011161055e57565b50604036600319011261055e576024356001600160401b03811161055e576107069036906004016106ad565b90610716600260fb5414156148d2565b600260fb5561072361482c565b1561074f57610739610742916020933691611500565b6004353361491e565b600160fb55604051908152f35b60405163f12dcc7f60e01b8152600490fd5b60005b8381106107745750506000910152565b8181015183820152602001610764565b9060209161079d81518092818552858086019101610761565b601f01601f1916010190565b9060206107ba928181520190610784565b90565b503461055e5760008060031936011261089c5760405190806067546107e1816130b2565b808552916001918083169081156108725750600114610817575b6106258561080b81870382611488565b604051918291826107a9565b9250606783527f9787eeb91fe3101235e4a76063c7023ecb40f923f97916639c598592fa30d6ae5b82841061085a57505050810160200161080b826106256107fb565b8054602085870181019190915290930192810161083f565b8695506106259693506020925061080b94915060ff191682840152151560051b82010192936107fb565b80fd5b503461055e57602036600319011261055e5760206108be6004356130ec565b6001600160a01b0360405191168152f35b6001600160a01b0381160361055e57565b604435906108ed826108cf565b565b61012435906108ed826108cf565b503461055e57604036600319011261055e5760043561091b816108cf565b6024356001600160a01b038061093083612fd7565b5116908316908082146109c45780331415806109b3575b6109a15761097a600094848652606b60205260408620906001600160a01b03166001600160601b0360a01b825416179055565b7f8c5be1e5ebec7d5bd14f71427d1e84f3dd0314c0f7b2291e5b200ac8c7c3b9258480a480f35b6040516367d9dca160e11b8152600490fd5b506109be3382614864565b15610947565b60405163250fdee360e21b8152600490fd5b606435906108ed826108cf565b503461055e57602036600319011261055e57600435610a01816108cf565b336000908152600080516020615c2f83398151915260205260408120549091907f00000000000000000000000000000000000000000000000000000000000000009060ff161561012d81610a80575b50610a625750610a5f90615524565b80f35b6040516333ba055f60e21b81526004810191909152602490fd5b0390fd5b9050818452602052610ab360ff610aad3360408720906001600160a01b0316600052602052604060002090565b54161590565b38610a50565b503461055e57602036600319011261055e57600435610ad7816108cf565b336000908152600080516020615c2f833981519152602052604090205460ff1615610b055761002190615acd565b6040516302bd6bd160e01b8152600490fd5b503461055e57600036600319011261055e576065546066546040519103600019018152602090f35b503461055e57600036600319011261055e5760e06101625461016354906101645490604051926001600160681b038216845263ffffffff8260681c1660208501526001600160401b03809260881c1660408501528181166060850152818160401c16608085015260801c1660a083015260c0820152f35b606090600319011261055e57600435610bce816108cf565b90602435610bdb816108cf565b9060443590565b503461055e57610021610bf436610bb6565b916131aa565b503461055e57602036600319011261055e5760043560005261012d6020526020600160406000200154604051908152f35b503461055e57602036600319011261055e57602060ff610c76600435610c50816108cf565b6000805261012d84526040600020906001600160a01b0316600052602052604060002090565b54166040519015158152f35b9181601f8401121561055e578235916001600160401b03831161055e576020808501948460051b01011161055e57565b50608036600319011261055e576024356044356004356001600160401b0360643581811161055e57610ce8903690600401610c82565b60409391935192610cf884611437565b60008452610d0b600260fb5414156148d2565b600260fb55610d186147fe565b15610e0257610d2683615935565b60655483016000190190818411610df5575b6101605460a01c1610610de35785610d5b610d6292610dc7968860209a336157f9565b8233615779565b6001600160a01b03610d7d610161546001600160a01b031690565b168015610dd957610da2905b6101665460201c6001600160a01b031690868434614b15565b610dac813361527d565b610dbd81610db8615047565b614857565b9384913333615a08565b610dd1600160fb55565b604051908152f35b50610da230610d89565b604051630717c51360e41b8152600490fd5b610dfd613e0d565b610d38565b604051634af69e0d60e11b8152600490fd5b503461055e57600036600319011261055e5760206040516001600160a01b037f0000000000000000000000000000000000000000000000000000000000000000168152f35b503461055e57604036600319011261055e57610e76602435614755565b604080516001600160a01b03939093168352602083019190915290f35b5060a036600319011261055e576001600160401b0360643581811161055e57610ec0903690600401610c82565b909160843590811161055e57610eda9036906004016106ad565b929091610eec600260fb5414156148d2565b600260fb55610ef96147fe565b15610e0257610f10610f1f93610625953691611500565b916044356024356004356153b1565b600160fb556040519081529081906020820190565b503461055e57604036600319011261055e57600435602435610f55816108cf565b60009180835261012d80602052610f726001604086200154613545565b8184528060205260ff610f9b8460408720906001600160a01b0316600052602052604060002090565b541615610fa6578380f35b818452602052610fcc8260408520906001600160a01b0316600052602052604060002090565b805460ff1916600117905533916001600160a01b0316907f2f8788117e7eff1d82e926ec794901d17c78024a50270940304540a733656f0d8480a43880808380f35b815115158152610160810192916020818101511515908301526040810151604083015261104b606082015160608401906001600160401b03169052565b6080818101516001600160401b03169083015260a0818101516001600160401b03169083015260c0818101516001600160401b03169083015260e081015160e08301526101008082015190830152610120808201519083015261014080910151910152565b503461055e57600036600319011261055e576110ca61478c565b506106256110d661482c565b6110de6147fe565b6101625490610163549163ffffffff61016454916000196065540192611130611114610160546001600160401b039060a01c1690565b956111276111206114a9565b9915158a52565b15156020890152565b6001600160681b03821660408801526111a36001600160401b038097611167828660881c1660608c01906001600160401b03169052565b6001600160401b038183161660808b01526001600160401b03604082901c83161660a08b015260801c1660c08901906001600160401b03169052565b60e087015260681c16610100850152610120840152166101408201526040519182918261100e565b503461055e57604036600319011261055e576024356111e9816108cf565b336001600160a01b0382160361120557610021906004356137d5565b60405162461bcd60e51b815260206004820152602f60248201527f416363657373436f6e74726f6c3a2063616e206f6e6c792072656e6f756e636560448201526e103937b632b9903337b91039b2b63360891b6064820152608490fd5b503461055e57602036600319011261055e57600435611280816108cf565b6001600160a01b0390817f0000000000000000000000000000000000000000000000000000000000000000166112b881301415613877565b6112d583600080516020615c0f83398151915254169182146138d8565b336000908152600080516020615c2f833981519152602052604081205490939060ff1615610b0557604051637399583360e01b81526001600160a01b0384811660048301529290921660248301526020908290604490829087907f0000000000000000000000000000000000000000000000000000000000000000165af19081156113cb575b839161139d575b501561137a57610a5f90611374613939565b90613a28565b604051633bcafdf560e21b81526001600160a01b03919091166004820152602490fd5b6113be915060203d81116113c4575b6113b68183611488565b810190614720565b38611362565b503d6113ac565b6113d361345f565b61135b565b60e435906108ed826108cf565b50634e487b7160e01b600052604160045260246000fd5b6001600160401b03811161140f57604052565b6114176113e5565b604052565b606081019081106001600160401b0382111761140f57604052565b602081019081106001600160401b0382111761140f57604052565b60a081019081106001600160401b0382111761140f57604052565b608081019081106001600160401b0382111761140f57604052565b90601f801991011681019081106001600160401b0382111761140f57604052565b6040519061016082018281106001600160401b0382111761140f57604052565b604051906108ed8261141c565b6020906001600160401b0381116114f3575b601f01601f19160190565b6114fb6113e5565b6114e8565b92919261150c826114d6565b9161151a6040519384611488565b82948184528183011161055e578281602093846000960137010152565b9080601f8301121561055e578160206107ba93359101611500565b503461055e57604036600319011261055e57600435611570816108cf565b6024356001600160401b03811161055e5761158f903690600401611537565b336000908152600080516020615c2f83398151915260205260408120549092919060ff1615610b05576001600160a01b03821690610160826001600160601b0360a01b825416179055805161162a575b604080513381526001600160a01b038516602082015285917f046c5d913c35948c3e0e44c3599eb14bf33b73f141fa8bb282b300414998b8689190819081015b0390a1610a5f615720565b909183833b1561089c578061167a7f046c5d913c35948c3e0e44c3599eb14bf33b73f141fa8bb282b300414998b8689561161f956040519485809481936342b53ffd60e11b8352600483016107a9565b03925af180156116aa575b611691575b50916115df565b8061169e6116a4926113fc565b80610553565b3861168a565b6116b261345f565b611685565b503461055e5760008060031936011261089c576116d9600260fb5414156148d2565b600260fb556116e73361556b565b476001600160a01b036101618380808086868654167f0000000000000000000000000000000000000000000000000000000000000000f161172661346c565b501561177e57546040805193845260006020850181905290840152166001600160a01b03169033907f8a95554e4c9dcaaf33f247387f2ee77390780487d3365e3a804788791a1df50090606090a3610a5f600160fb55565b6040516339debd5b60e01b8152600490fd5b503461055e57602036600319011261055e5760206602c2ad68fd90006004358181029181159183041417156117c757604051908152f35b6117cf613e0d565b610dd1565b503461055e5760008060031936011261089c577f000000000000000000000000000000000000000000000000000000000000000081805261012d8060205260ff6118343360408620906001600160a01b0316600052602052604060002090565b541615908161184c575b50610a625750610a5f615630565b905081835260205261187960ff610aad3360408620906001600160a01b0316600052602052604060002090565b3861183e565b503461055e5761002161189136610bb6565b906040519261189f84611437565b60008452613126565b503461055e57602036600319011261055e576004356118c681612fd7565b80516001600160a01b039081169081903382148015611b0a575b8015611aea575b15611ad8576000936118f983876133ce565b6119a7611919846001600160a01b0316600052606a602052604060002090565b61195d61194061193083546001600160401b031690565b600019016001600160401b031690565b825467ffffffffffffffff19166001600160401b03909116178255565b805461197f9060801c6001600160401b03165b6001016001600160401b031690565b815467ffffffffffffffff60801b191660809190911b67ffffffffffffffff60801b16179055565b6119f36119be876000526069602052604060002090565b8054600160e01b6001600160e81b03199091166001600160a01b0387161767ffffffffffffffff60a01b4260a01b1617179055565b60018601611a0b816000526069602052604060002090565b92611a1d84546001600160a01b031690565b1615611a60575b505050507fddf252ad1be2c89b69c2b068fc378daa952ba7f163c4a11628f55a4df523b3ef8280a4610021611a5b60665460010190565b606655565b60655403611a6f575b80611a24565b6020611aa891611a9a611ad09585906001600160a01b03166001600160601b0360a01b825416179055565b01516001600160401b031690565b815467ffffffffffffffff60a01b191660a09190911b67ffffffffffffffff60a01b16179055565b388080611a69565b604051632ce44b5f60e11b8152600490fd5b5033611b04611af8876130ec565b6001600160a01b031690565b146118e7565b50611b153383614864565b6118e0565b50608036600319011261055e57600435611b33816108cf565b6024356001600160401b0360443581811161055e57611b569036906004016106ad565b93909260643592611b66846108cf565b611b75600260fb5414156148d2565b600260fb5560655482016000190190818311611bd8575b6101605460a01c1610610de357611ba161482c565b1561074f57611bb8611bbe94610625963691611500565b91614a35565b611bc8600160fb55565b6040519081529081906020820190565b611be0613e0d565b611b8c565b50604036600319011261055e57600435611bfe816108cf565b6024356001600160401b03811161055e57611c1d903690600401611537565b6001600160a01b0390817f000000000000000000000000000000000000000000000000000000000000000016611c5581301415613877565b611c7283600080516020615c0f83398151915254169182146138d8565b336000908152600080516020615c2f833981519152602052604081205490939060ff1615610b0557604051637399583360e01b81526001600160a01b0386811660048301529290921660248301526020908290604490829087907f0000000000000000000000000000000000000000000000000000000000000000165af1908115611d4e575b8391611d30575b5015611d0f57610a5f9192613afb565b604051633bcafdf560e21b81526001600160a01b0384166004820152602490fd5b611d48915060203d81116113c4576113b68183611488565b38611cff565b611d5661345f565b611cf8565b503461055e57600036600319011261055e576001600160a01b037f0000000000000000000000000000000000000000000000000000000000000000163003611db657604051600080516020615c0f8339815191528152602090f35b60405162461bcd60e51b815260206004820152603860248201527f555550535570677261646561626c653a206d757374206e6f742062652063616c60448201527f6c6564207468726f7567682064656c656761746563616c6c00000000000000006064820152608490fd5b608435906001600160401b038216820361055e57565b604435906001600160401b038216820361055e57565b606435906001600160401b038216820361055e57565b60a435906001600160401b038216820361055e57565b60a4359061ffff8216820361055e57565b503461055e5761014036600319011261055e576001600160401b0360043581811161055e57611ebd903690600401611537565b60243582811161055e57611ed5903690600401611537565b611edd6108e0565b611ee56109d6565b611eed611e21565b90611ef6611e79565b60c43587811161055e57611f0e903690600401610c82565b939092611f196113d8565b9561010435998a1161055e57611f366100219a3690600401611537565b97611f3f6108ef565b9961410b565b503461055e57602036600319011261055e57610625611f6560043561408f565b6040519182918291909160808060a0830194805184526020810151602085015260408101516040850152606081015160608501520151910152565b503461055e57602036600319011261055e576001600160a01b03600435611fc6816108cf565b166000526101656020526020604060002054604051908152f35b503461055e57600036600319011261055e576020610166546001600160a01b0360405191831c168152f35b503461055e57602036600319011261055e5760206001600160a01b03612032600435612fd7565b5116604051908152f35b503461055e57600036600319011261055e57602063ffffffff6101665416604051908152f35b503461055e57600036600319011261055e5760206001600160a01b036101605416604051908152f35b503461055e57602036600319011261055e576001600160a01b036004356120b1816108cf565b1680156120d957600052606a60205260206001600160401b0360406000205416604051908152f35b6040516323d3ad8160e21b8152600490fd5b503461055e57602036600319011261055e57610625611f65600435614000565b503461055e57600036600319011261055e576080610160546001600160a01b039061ffff8261016154169160405193811684526001600160401b038160a01c16602085015260e01c1660408301526060820152f35b503461055e57602036600319011261055e5760043561217e816108cf565b6001600160a01b036101665460201c1633036121c3576100219061016690640100000000600160c01b0382549160201b1690640100000000600160c01b031916179055565b604051632afb0ecf60e01b8152600490fd5b503461055e57600036600319011261055e5760206001600160a01b0361015f5416604051908152f35b503461055e57604036600319011261055e57602060ff610c76602435612223816108cf565b60043560005261012d84526040600020906001600160a01b0316600052602052604060002090565b503461055e5760008060031936011261089c57604051908060685461226f816130b2565b808552916001918083169081156108725750600114612298576106258561080b81870382611488565b9250606883527fa2153420d844928b4421650203c77babc8b33d7f2e7b450e2966db0c220977535b8284106122db57505050810160200161080b826106256107fb565b805460208587018101919091529093019281016122c0565b503461055e57600036600319011261055e57602060405163ffffffff7f0000000000000000000000000000000000000000000000000000000000000000168152f35b503461055e57600036600319011261055e57602060405160008152f35b8015150361055e57565b503461055e57604036600319011261055e5760043561237a816108cf565b60243561238681612352565b6001600160a01b03821691338314612401576123c29033600052606c6020526040600020906001600160a01b0316600052602052604060002090565b9015159060ff1981541660ff83161790556040519081527f17307eab39ab6107e8899845ad3d59bd9653f200f220920489ca2b5937696c3160203392a3005b60405163b06307db60e01b8152600490fd5b602060031982011261055e57600435906001600160401b03821161055e5761243d91600401610c82565b9091565b503461055e5761245961245336612413565b90615b16565b60405160209182820192808352815180945260408301938160408260051b8601019301916000955b82871061248e5785850386f35b9091929382806124aa600193603f198a82030186528851610784565b9601920196019592919092612481565b5060c036600319011261055e576004356044356024356001600160401b0360643581811161055e576124f0903690600401610c82565b949060843583811161055e5761250a903690600401611537565b9260a43590612518826108cf565b612527600260fb5414156148d2565b600260fb556125346147fe565b15610e025761254284615935565b606554840160001901908185116125c4575b6101605460a01c1610610de3576125818561257a602099610da2958a610dc79a336157f9565b8433615779565b6001600160a01b0361259c610161546001600160a01b031690565b1680156125bd575b6101665460201c6001600160a01b031690878534614c5d565b50306125a4565b6125cc613e0d565b612554565b503461055e57608036600319011261055e576004356125ef816108cf565b6024356125fb816108cf565b606435916001600160401b03831161055e5761261e610021933690600401611537565b9160443591613126565b503461055e5761263736612413565b336000908152600080516020615c2f83398151915260205260409020549091907f00000000000000000000000000000000000000000000000000000000000000009060ff161561012d81612729575b50612711575060655482810160001901808411612704575b6001600160401b036101605460a01c1610610de35782810191815b8381106126cb57610625611bc8615047565b806126f18460019303878110156126f7575b60051b8401356126ec816108cf565b615061565b016126b9565b6126ff613e67565b6126dd565b61270c613e0d565b61269e565b602490604051906333ba055f60e21b82526004820152fd5b6000838152602091825260408082203383529092522060ff915054161538612686565b503461055e57602036600319011261055e576004356001600160401b03811161055e5761277d903690600401611537565b336000908152600080516020615c2f833981519152602052604081205490919060ff1615610b055781906001600160a01b03610160541682602083519301915af16127c661346c565b90156127d8576106259061080b615720565b6040516397e71ac360e01b8152600490fd5b503461055e57602036600319011261055e576004356128088161316f565b1561288b576101605460405163c87b56dd60e01b815260048101929092526106259190600090829060249082906001600160a01b03165afa90811561287e575b60009161285d575b50604051918291826107a9565b612878913d8091833e6128708183611488565b8101906156c2565b38612850565b61288661345f565b612848565b604051630a14c4b560e41b8152600490fd5b6004359063ffffffff8216820361055e57565b6024359063ffffffff8216820361055e57565b503461055e57602036600319011261055e576128dd61289d565b336000908152600080516020615c2f833981519152602052604090205460ff1615610b055763ffffffff166001811461292357610166805463ffffffff19169091179055005b604051630d9b92f160e01b8152600490fd5b50606036600319011261055e5760043561294e816108cf565b6044356001600160401b03811161055e5761296d9036906004016106ad565b9161297d600260fb5414156148d2565b600260fb5561298a61482c565b1561074f576129a1610f1f92610625943691611500565b906024359061491e565b503461055e57602036600319011261055e576106256004356129cc816108cf565b6129d4612f7b565b506001600160a01b03811660005261016560205260406000205490606a602052612a6d612a61612a51612a376001600160401b0360406000205460401c16612a30866001600160a01b0316600052610165602052604060002090565b5490614857565b936001600160a01b0316600052606a602052604060002090565b5460401c6001600160401b031690565b6001600160401b031690565b91612a766114c9565b9283526020830152604082015260405191829182919091604080606083019480518452602081015160208501520151910152565b503461055e57600036600319011261055e5760206040517f00000000000000000000000000000000000000000000000000000000000000008152f35b503461055e57604036600319011261055e57610021602435600435612b0a826108cf565b8060005261012d602052612b25600160406000200154613545565b6137d5565b503461055e57604036600319011261055e57600080600435612b4b816108cf565b612b5a600260fb5414156148d2565b600260fb55612b683361556b565b60405163f3fef3a360e01b602082019081526001600160a01b03909216602480830191909152356044820152612bab81606481015b03601f198101835282611488565b5190826001600160a01b037f0000000000000000000000000000000000000000000000000000000000000000165af1612be261346c565b5015612bf257610021600160fb55565b60405163de21f0cb60e01b8152600490fd5b503461055e57600036600319011261055e5760206040517f00000000000000000000000000000000000000000000000000000000000000008152f35b503461055e57604036600319011261055e57600435612c5e816108cf565b336000908152600080516020615c2f83398151915260205260409020547f00000000000000000000000000000000000000000000000000000000000000009060ff161561012d81612cbe575b50610a6257610625611bc860243584615431565b905081600052602052612ced60ff610aad336040600020906001600160a01b0316600052602052604060002090565b38612caa565b503461055e5760008060031936011261089c57806004610625926001600160a01b0361016054166040519283809263e8a3d48560e01b82525afa918215612d6d575b8092612d52575b5050604051918291602083526020830190610784565b612d6692503d8091833e6128708183611488565b3880612d3c565b612d7561345f565b612d35565b503461055e57604036600319011261055e576020612daf600435612d9d816108cf565b60243590612daa826108cf565b614864565b6040519015158152f35b503461055e57602036600319011261055e576040612df96004357f0000000000000000000000000000000000000000000000000000000000000000613e47565b8151906001600160a01b037f00000000000000000000000000000000000000000000000000000000000000001682526020820152f35b50602036600319011261055e57612e4b600260fb5414156148d2565b600260fb55612e5861482c565b1561074f576020610742604051612e6e81611437565b600081526004353361491e565b503461055e5760e036600319011261055e576004356001600160681b038116810361055e57612ea86128b0565b612eb0611e37565b91612eb9611e4d565b612ec1611e21565b612ec9611e63565b336000908152600080516020615c2f83398151915260205260408120547f00000000000000000000000000000000000000000000000000000000000000009791969294929060ff161561012d81612f48575b50612f2f57610a5f96975060c43595615476565b6040516333ba055f60e21b815260048101899052602490fd5b9050888852602052612f7560ff610aad3360408b20906001600160a01b0316600052602052604060002090565b38612f1b565b60405190612f888261141c565b60006040838281528260208201520152565b90604051612fa78161141c565b604060ff8294546001600160a01b03811684526001600160401b038160a01c16602085015260e01c161515910152565b612fdf612f7b565b5060018180821115806130a7575b613004575b604051636f96cda160e11b8152600490fd5b61301b613020916000526069602052604060002090565b612f9a565b6130346130306040830151151590565b1590565b15612ff2576001600160a01b0361305282516001600160a01b031690565b166130a1575090815b6130655780612ff2565b600019019061308161301b836000526069602052604060002090565b613095611af882516001600160a01b031690565b6130a15750908161305b565b91505090565b506065548110612fed565b90600182811c921680156130e2575b60208310146130cc57565b634e487b7160e01b600052602260045260246000fd5b91607f16916130c1565b6130f58161316f565b1561311457600052606b6020526001600160a01b036040600020541690565b6040516333d1c03960e21b8152600490fd5b9291906131348282866131aa565b803b1515938461315b575b5050505061314957565b6040516368d2bf6b60e11b8152600490fd5b613165945061349c565b153880808061313f565b8060011115908161319e575b81613184575090565b9050600052606960205260ff60406000205460e01c161590565b6065548110915061317b565b6131b383612fd7565b906131c582516001600160a01b031690565b6001600160a01b03828116939181168490036133bd5783331480156133ad575b8015613399575b15611ad8578416938415613387576132e69061320884886133ce565b613256613228856001600160a01b0316600052606a602052604060002090565b61323c61193082546001600160401b031690565b6001600160401b03166001600160401b0319825416179055565b61328a613276826001600160a01b0316600052606a602052604060002090565b61323c61197082546001600160401b031690565b6132c06132a1886000526069602052604060002090565b9182906001600160a01b03166001600160601b0360a01b825416179055565b805467ffffffffffffffff60a01b19164260a01b67ffffffffffffffff60a01b16179055565b60018501906132ff826000526069602052604060002090565b91613314611af884546001600160a01b031690565b15613345575b505050507fddf252ad1be2c89b69c2b068fc378daa952ba7f163c4a11628f55a4df523b3ef600080a4565b60655403613354575b8061331a565b6020611aa891611a9a61337f9585906001600160a01b03166001600160601b0360a01b825416179055565b38808061334e565b604051633a954ecd60e21b8152600490fd5b50336133a7611af8886130ec565b146131ec565b506133b83384614864565b6131e5565b60405162a1148160e81b8152600490fd5b6000818152606b6020526040812080546001600160a01b031916905590916001600160a01b03167f8c5be1e5ebec7d5bd14f71427d1e84f3dd0314c0f7b2291e5b200ac8c7c3b9258280a4565b9081602091031261055e57516107ba816105a8565b90926107ba94936080936001600160a01b03809216845216602083015260408201528160608201520190610784565b506040513d6000823e3d90fd5b3d15613497573d9061347d826114d6565b9161348b6040519384611488565b82523d6000602084013e565b606090565b926020916134cd9360006001600160a01b03604051809781968295630a85bd0160e11b9b8c85523360048601613430565b0393165af160009181613515575b50613507576134e861346c565b80519081613502576040516368d2bf6b60e11b8152600490fd5b602001fd5b6001600160e01b0319161490565b61353791925060203d811161353e575b61352f8183611488565b81019061341b565b90386134db565b503d613525565b8060005261012d60205260ff613572336040600020906001600160a01b0316600052602052604060002090565b54161561357c5750565b3390613586613951565b91603061359284613e7e565b53607861359e84613e94565b5360295b6001811161363f57610a7c61360a61362786612b9d6135ca886135c58915613edf565b613f2a565b613604604051958694613604602087016017907f416363657373436f6e74726f6c3a206163636f756e742000000000000000000081520190565b9061368e565b7001034b99036b4b9b9b4b733903937b6329607d1b815260110190565b60405162461bcd60e51b8152918291600483016107a9565b9080600f61367c92166010811015613681575b6f181899199a1a9b1b9c1cb0b131b232b360811b901a6136728487613ea5565b5360041c91613ec4565b6135a2565b613689613e67565b613652565b906136a160209282815194859201610761565b0190565b6001600160a01b0381166000908152600080516020615c2f833981519152602052604081205461012d9060ff16156136dc57505050565b8180526020526137028260408320906001600160a01b0316600052602052604060002090565b805460ff1916600117905533916001600160a01b0316907f2f8788117e7eff1d82e926ec794901d17c78024a50270940304540a733656f0d8180a4565b6001600160a01b0381166000908152600080516020615c2f833981519152602052604081205461012d9060ff1661377557505050565b81805260205261379b8260408320906001600160a01b0316600052602052604060002090565b805460ff1916905533916001600160a01b0316907ff6391f5c32d9c69d2a47ea670b442974b53935d1edc7fd64eb21e047a839171b8180a4565b60009080825261012d8060205260ff6138048560408620906001600160a01b0316600052602052604060002090565b5416613811575b50505050565b8183526020526138378360408420906001600160a01b0316600052602052604060002090565b60ff1981541690557ff6391f5c32d9c69d2a47ea670b442974b53935d1edc7fd64eb21e047a839171b6001600160a01b033394169280a43880808061380b565b1561387e57565b60405162461bcd60e51b815260206004820152602c60248201527f46756e6374696f6e206d7573742062652063616c6c6564207468726f7567682060448201526b19195b1959d85d1958d85b1b60a21b6064820152608490fd5b156138df57565b60405162461bcd60e51b815260206004820152602c60248201527f46756e6374696f6e206d7573742062652063616c6c6564207468726f7567682060448201526b6163746976652070726f787960a01b6064820152608490fd5b60405161394581611437565b60008152906000368137565b6040519061395e8261141c565b602a82526040366020840137565b9081602091031261055e575190565b1561398257565b60405162461bcd60e51b815260206004820152602960248201527f45524331393637557067726164653a20756e737570706f727465642070726f786044820152681a58589b195555525160ba1b6064820152608490fd5b60809060208152602e60208201527f45524331393637557067726164653a206e657720696d706c656d656e7461746960408201526d6f6e206973206e6f74205555505360901b60608201520190565b90613a547f4910fdfa16fed3260ed0e7147f7cc6da11a60208b5b9406d12a635614ffd91435460ff1690565b15613a6357506108ed90613bbe565b6040516352d1902d60e01b8152916020836004816001600160a01b0385165afa60009381613acb575b50613aaa5760405162461bcd60e51b815280610a7c600482016139d9565b613ac6600080516020615c0f8339815191526108ed941461397b565b613c4c565b613aed91945060203d8111613af4575b613ae58183611488565b81019061396c565b9238613a8c565b503d613adb565b90613b277f4910fdfa16fed3260ed0e7147f7cc6da11a60208b5b9406d12a635614ffd91435460ff1690565b15613b3657506108ed90613bbe565b6040516352d1902d60e01b8152916020836004816001600160a01b0385165afa60009381613b9e575b50613b7d5760405162461bcd60e51b815280610a7c600482016139d9565b613b99600080516020615c0f8339815191526108ed941461397b565b613cd6565b613bb791945060203d8111613af457613ae58183611488565b9238613b5f565b803b15613bf1576001600160a01b03600080516020615c0f83398151915291166001600160601b0360a01b825416179055565b60405162461bcd60e51b815260206004820152602d60248201527f455243313936373a206e657720696d706c656d656e746174696f6e206973206e60448201526c1bdd08184818dbdb9d1c9858dd609a1b6064820152608490fd5b90613c5682613bbe565b6001600160a01b0382167fbc7cd75a20ee27fd9adebab32041f755214dbc6bffa90cc0225b39da2e5c2d3b600080a2805115801590613cce575b613c98575050565b6000809183613cac613ccb953b1515613d29565b602082519201905af4613cbd61346c565b613cc5613d84565b91613dcd565b50565b506000613c90565b90613ce082613bbe565b6001600160a01b0382167fbc7cd75a20ee27fd9adebab32041f755214dbc6bffa90cc0225b39da2e5c2d3b600080a2805115801590613d2157613c98575050565b506001613c90565b15613d3057565b60405162461bcd60e51b815260206004820152602660248201527f416464726573733a2064656c65676174652063616c6c20746f206e6f6e2d636f6044820152651b9d1c9858dd60d21b6064820152608490fd5b60405190613d918261141c565b60278252660819985a5b195960ca1b6040837f416464726573733a206c6f772d6c6576656c2064656c65676174652063616c6c60208201520152565b90919015613dd9575090565b815115613de95750805190602001fd5b60405162461bcd60e51b815260206004820152908190610a7c906024830190610784565b50634e487b7160e01b600052601160045260246000fd5b906564f43391f00091828102928184041490151715613e3f57565b6108ed613e0d565b81810292918115918404141715613e3f57565b91908201809211613e3f57565b50634e487b7160e01b600052603260045260246000fd5b602090805115613e8c570190565b6136a1613e67565b602190805160011015613e8c570190565b906020918051821015613eb757010190565b613ebf613e67565b010190565b8015613ed2575b6000190190565b613eda613e0d565b613ecb565b15613ee657565b606460405162461bcd60e51b815260206004820152602060248201527f537472696e67733a20686578206c656e67746820696e73756666696369656e746044820152fd5b60405190613f378261146d565b6042825260603660208401376030613f4e83613e7e565b536078613f5a83613e94565b536041905b60018211613f72576107ba915015613edf565b80600f613fa492166010811015613faa575b6f181899199a1a9b1b9c1cb0b131b232b360811b901a6136728486613ea5565b90613f5f565b613fb2613e67565b613f84565b6040519060a082018281106001600160401b03821117613ff3575b60405260006080838281528260208201528260408201528260608201520152565b613ffb6113e5565b613fd2565b614008613fb7565b5066012edc9ab5d0008082029180159181840414821715614082575b6564f43391f0009182820292828404141715614075575b61404d61404782613e24565b91613e24565b916040519361405b85611452565b845280602085015260408401526060830152608082015290565b61407d613e0d565b61403b565b61408a613e0d565b614024565b614097613fb7565b5065c9e86723e00080820290821590838304148117156140fe575b6564f43391f0008084029384041417156140f1575b604051916140d483611452565b600083528160208401528160408401526060830152608082015290565b6140f9613e0d565b6140c7565b614106613e0d565b6140b2565b99979593919896949290986000549960ff8b60081c169a8b6000146141e15750303b155b15614185576141449a159b8c61415a576141ea565b61414a57565b6108ed61ff001960005416600055565b61416e61010061ff00196000541617600055565b614180600160ff196000541617600055565b6141ea565b60405162461bcd60e51b815260206004820152602e60248201527f496e697469616c697a61626c653a20636f6e747261637420697320616c72656160448201526d191e481a5b9a5d1a585b1a5e995960921b6064820152608490fd5b60ff161561412f565b61421f9291614201919b9a9b9894979596986143ee565b6142096146f3565b614211614704565b61421a816136a5565b615acd565b8061436b575b505061138861ffff61423f6101605461ffff9060e01c1690565b16116143515761016080546001600160a01b03861660a09390931b67ffffffffffffffff60a01b166001600160f01b0319909116179190911760e09390931b61ffff60e01b16929092179091556142b0906001600160a01b0361016191166001600160601b0360a01b825416179055565b6001600160a01b039182811661431c575b5016803b1561055e576040516342b53ffd60e11b81529160009183918290849082906142f090600483016107a9565b03925af1801561430f575b6143025750565b8061169e6108ed926113fc565b61431761345f565b6142fb565b61434b9061016690640100000000600160c01b0382549160201b1690640100000000600160c01b031916179055565b386142c1565b60405163334074c160e11b81526113886004820152602490fd5b61437d91614378336136a5565b615b16565b506143873361373f565b3880614225565b1561439557565b60405162461bcd60e51b815260206004820152602b60248201527f496e697469616c697a61626c653a20636f6e7472616374206973206e6f74206960448201526a6e697469616c697a696e6760a81b6064820152608490fd5b9061440960ff60005460081c166144048161438e565b61438e565b81516001600160401b03811161450d575b61442e816144296067546130b2565b61451a565b602080601f831160011461447a575081906144659460009261446f575b50508160011b916000199060031b1c1916176067556145fc565b6108ed6001606555565b01519050388061444b565b919293601f1984166144ae60676000527f9787eeb91fe3101235e4a76063c7023ecb40f923f97916639c598592fa30d6ae90565b936000905b8282106144f5575050916001939185614465979694106144dc575b505050811b016067556145fc565b015160001960f88460031b161c191690553880806144ce565b806001869782949787015181550196019401906144b3565b6145156113e5565b61441a565b601f8111614526575050565b600090606782527f9787eeb91fe3101235e4a76063c7023ecb40f923f97916639c598592fa30d6ae906020601f850160051c83019410614581575b601f0160051c01915b82811061457657505050565b81815560010161456a565b9092508290614561565b601f8111614597575050565b600090606882527fa2153420d844928b4421650203c77babc8b33d7f2e7b450e2966db0c22097753906020601f850160051c830194106145f2575b601f0160051c01915b8281106145e757505050565b8181556001016145db565b90925082906145d2565b9081516001600160401b0381116146e6575b6146228161461d6068546130b2565b61458b565b602080601f831160011461465e5750819293600092614653575b50508160011b916000199060031b1c191617606855565b01519050388061463c565b90601f1983169461469160686000527fa2153420d844928b4421650203c77babc8b33d7f2e7b450e2966db0c2209775390565b926000905b8782106146ce5750508360019596106146b5575b505050811b01606855565b015160001960f88460031b161c191690553880806146aa565b80600185968294968601518155019501930190614696565b6146ee6113e5565b61460e565b6108ed60ff60005460081c1661438e565b61471960ff60005460081c166144048161438e565b600160fb55565b9081602091031261055e57516107ba81612352565b811561473f570490565b634e487b7160e01b600052601260045260246000fd5b906001600160a01b036101615416918215614786576147826127109161ffff6101605460e01c1690613e47565b0490565b50600090565b6040519061016082018281106001600160401b038211176147f1575b604052816101406000918281528260208201528260408201528260608201528260808201528260a08201528260c08201528260e082015282610100820152826101208201520152565b6147f96113e5565b6147a8565b610163546001600160401b039042828260401c161115918261481f57505090565b909150429160801c161190565b6001600160401b03806101625460881c16421015908161484a575090565b9050429061016354161190565b91908203918211613e3f57565b6001600160a01b0391827f000000000000000000000000000000000000000000000000000000000000000016838216146148ca5760ff926148c59216600052606c6020526040600020906001600160a01b0316600052602052604060002090565b541690565b505050600190565b156148d957565b60405162461bcd60e51b815260206004820152601f60248201527f5265656e7472616e637947756172643a207265656e7472616e742063616c6c006044820152606490fd5b909161492983615935565b610162549163ffffffff8360681c1680151590816149cf575b506149bd576001600160681b036107ba93166001600160a01b0361496f610161546001600160a01b031690565b1680156149b357614994905b6101665460201c6001600160a01b031690838834614b15565b61499e858361527d565b6149aa85610db8615047565b94859233615a08565b506149943061497b565b604051630882ba5360e21b8152600490fd5b90506001600160a01b038216600052606a602052614a2e614a1086614a0b6001600160401b0360406000205460401c166001600160401b031690565b613e5a565b612a30846001600160a01b0316600052610165602052604060002090565b1138614942565b92919092614a4284615935565b610162549263ffffffff8460681c168015159081614ab4575b506149bd576149946001600160681b036107ba9516916001600160a01b03614a8c610161546001600160a01b031690565b168015614aad575b6101665460201c6001600160a01b031690848934614c5d565b5030614a94565b90506001600160a01b038316600052606a602052614b0e614af087614a0b6001600160401b0360406000205460401c166001600160401b031690565b612a30856001600160a01b0316600052610165602052604060002090565b1138614a5b565b939291936602c2ad68fd900094858302958387041483151715614c50575b80614b5a57508403614b48576108ed93614e1c565b604051633b78763760e21b8152600490fd5b614b6990839693959495613e47565b820190818311614c43575b03614b4857614b83829461408f565b936001600160a01b0380931615614c1c575b7f0000000000000000000000000000000000000000000000000000000000000000927f0000000000000000000000000000000000000000000000000000000000000000169160208601519160408701519660806060820151910151853b1561055e57866142f0926000996040519b8c9a8b998a9863faa3516f60e01b8a5260048a01614ff0565b507f0000000000000000000000000000000000000000000000000000000000000000614b95565b614c4b613e0d565b614b74565b614c58613e0d565b614b33565b94939291946602c2ad68fd900095868302968388041483151715614db8575b80614c9157508503614b48576108ed94614eec565b614ca19083979497969596613e47565b830190818411614dab575b03614b485783614cbc849261408f565b936001600160a01b0380921615614d83575b811615614d5b575b7f00000000000000000000000000000000000000000000000000000000000000001691602084015160408501519460806060820151910151853b1561055e576000976142f0926040519a8b998a98899763faa3516f60e01b89527f00000000000000000000000000000000000000000000000000000000000000009560048a01614ff0565b7f00000000000000000000000000000000000000000000000000000000000000009150614cd6565b7f00000000000000000000000000000000000000000000000000000000000000009550614cce565b614db3613e0d565b614cac565b614dc0613e0d565b614c7c565b969192959061012098949b9a999561014089019c6001600160a01b0380998197828096168d5260208d01521660408b015260608a015216608088015260a08701521660c085015260e0840152166101008201520152565b9190614e2790614000565b916001600160a01b039384811615614ec5575b7f0000000000000000000000000000000000000000000000000000000000000000947f00000000000000000000000000000000000000000000000000000000000000001691845160208601519460408701516080606089015198015190863b1561055e576000986142f0938b926040519c8d9b8c9a8b9963faa3516f60e01b8b528560048c01614dc5565b507f0000000000000000000000000000000000000000000000000000000000000000614e3a565b90614efa9094929394614000565b926001600160a01b0380861615614fc8575b80841615614fa0575b7f000000000000000000000000000000000000000000000000000000000000000016918451956020860151926040870151976080606089015198015190863b1561055e576000986142f0936040519b8c9a8b998a9863faa3516f60e01b8a527f0000000000000000000000000000000000000000000000000000000000000000968560048c01614dc5565b7f00000000000000000000000000000000000000000000000000000000000000009350614f15565b7f00000000000000000000000000000000000000000000000000000000000000009550614f0c565b94610120969291999897939461014087019a60008852600060208901526001600160a01b039687948580931660408b015260608a015216608088015260a08701521660c085015260e0840152166101008201520152565b60655460001981019081116150595790565b6107ba613e0d565b7f0000000000000000000000000000000000000000000000000000000000000000916001600160401b0342811691600190815b15615270575b600093868311156152695786935b606554976001600160a01b0388169788156152585786156152465761516883881661510b6150e9846001600160a01b0316600052606a602052604060002090565b61323c836150fe83546001600160401b031690565b016001600160401b031690565b61514161512b846001600160a01b0316600052606a602052604060002090565b916150fe83546001600160401b039060401c1690565b67ffffffffffffffff60401b82549160401b169067ffffffffffffffff60401b1916179055565b61519d816151808c6000526069602052604060002090565b906001600160a01b03166001600160601b0360a01b825416179055565b6151e0846151b58c6000526069602052604060002090565b805467ffffffffffffffff60a01b191660a09290921b67ffffffffffffffff60a01b16919091179055565b868a019460015b1561521e575b8860018c019b8b8b7fddf252ad1be2c89b69c2b068fc378daa952ba7f163c4a11628f55a4df523b3ef8180a46151e7565b858b036151ed579450959197509593610db861523a9399606555565b91959395949294615094565b60405163b562e8dd60e01b8152600490fd5b604051622e076360e81b8152600490fd5b82936150a8565b8161509a57945050505050565b90916001907f0000000000000000000000000000000000000000000000000000000000000000936001600160401b0391824216935b156153a4575b6000938683111561539d5786935b606554976001600160a01b0388169788156152585786156152465761530783881661510b6150e9846001600160a01b0316600052606a602052604060002090565b61531f816151808c6000526069602052604060002090565b615337846151b58c6000526069602052604060002090565b868a019460015b15615375575b8860018c019b8b8b7fddf252ad1be2c89b69c2b068fc378daa952ba7f163c4a11628f55a4df523b3ef8180a461533e565b858b03615344579450959197509593610db86153919399606555565b919593959492946152b2565b82936152c6565b816152b857945050505050565b91949293906153c5600260fb5414156148d2565b600260fb556153d26147fe565b15610e02576153e083615935565b606554830160001901808411615424575b6001600160401b036101605460a01c1610610de357610d5b610d6292615419968884336157f9565b906108ed600160fb55565b61542c613e0d565b6153f1565b90600019606554820101808211615469575b6001600160401b036101605460a01c1610610de3576154619161527d565b6107ba615047565b615471613e0d565b615443565b90939293610162926001600160681b038454916001600160401b0360881b9060881b1693169066ffffffffffffff60c81b16179063ffffffff60681b9060681b161717905567ffffffffffffffff60401b610163936001600160401b038554918160801b9060801b169416906001600160401b0360c01b16179160401b161717905561016455337fc1ff5e4744ac8dd2b8027a10e3723b165975297501c71c4e7dcb8796d96375db600080a2565b6001600160a01b0316610161816001600160601b0360a01b82541617905533907f70a7ea5c664ab9c21baf3da59bb2f1e1ca33557b08a0031fab4f170767449951600080a3565b6001600160a01b0381166000908152600080516020615c2f833981519152602052604090205460ff16159061012d826155d9575b50816155bf575b506155ad57565b604051631dab829b60e01b8152600490fd5b90506001600160a01b0380610161541691161415386155a6565b9091507f000000000000000000000000000000000000000000000000000000000000000060005260205260ff615626826040600020906001600160a01b0316600052602052604060002090565b541615903861559f565b6001600160401b036101608180825460a01c16036156b057606554610160805467ffffffffffffffff60a01b191660001992909201841660a01b67ffffffffffffffff60a01b169190911790555460a01c166040519081527fb6cc1e876b8d7479c8afe025a58658b0f3c3ec5bd0f28cb4261326b162069bf860203392a2565b6040516339d0b02160e21b8152600490fd5b60208183031261055e578051906001600160401b03821161055e570181601f8201121561055e5780516156f4816114d6565b926157026040519485611488565b8184526020828401011161055e576107ba9160208085019101610761565b606554600019810180615731575050565b817f6bd5c950a8d8df17f772f5af37cb3655737899cbf903264b9795592da439661c926040921161576c575b815190600182526020820152a1565b615774613e0d565b61575d565b6001600160a01b0316806000526101659182602052604060002080549182018092116157c6575b55600052602052604060002054116157b457565b60405163a7b32bb160e01b8152600490fd5b6157ce613e0d565b6157a0565b6020906001600160401b0381116157ec575b60051b0190565b6157f46113e5565b6157e5565b939192936101645493604051906020936001600160a01b0385840194168452604083015260608201526060815261582f8161146d565b5190209361583c836157d3565b9261584a6040519485611488565b8084528284019060051b82019136831161055e57905b82821061589157505050509161303091615879936158a0565b61587f57565b6040516342db872960e11b8152600490fd5b81358152908301908301615860565b929091906000915b84518310156158f3576158bb8386615913565b51908181116158de576000526020526158d86040600020926158fb565b916158a8565b906000526020526158d86040600020926158fb565b915092501490565b600190600019811461590b570190565b6136a1613e0d565b6020918151811015615928575b60051b010190565b615930613e67565b615920565b63ffffffff908161016654169182156159f1576001600160a01b03610161541692831561380b576159c5926001600160401b036159b861599a6159bf94600019968760655401978289068701928388116159e4575b018181116159d7575b1690614735565b946159b2610160546001600160401b039060a01c1690565b93613e5a565b9116614857565b906159f6565b806159ce575050565b6108ed9161527d565b6159df613e0d565b615993565b6159ec613e0d565b61598a565b505050565b9080821015615a03575090565b905090565b939492826040518781527f4e26b0356a15833a75d497ecc40ebbb716b99466ed0dba9454f1fff451e25a9060206001600160a01b0380961692a48251615a50575b5050505050565b7fb9490aee663998179ad13f9e1c1eb6189c71ad1a9ec87f33ad2766f98d9a268a91615a92604051928392835260406020840152309616946040830190610784565b0390a43880808080615a49565b6040513481527f8e47b87b0ef542cdfa1659c551d88bad38aa7f452d2bbb349ab7530dfec8be8f60203392a2565b61015f9081546001600160a01b03809216809282167f8be0079c531659141344cd1fd0a4f28419497f9722a3daafe3b4186f6b6457e0600080a36001600160a01b031916179055565b9190615b21816157d3565b90615b2f6040519283611488565b808252601f19615b3e826157d3565b0160005b818110615bca575050819360005b828110615b5d5750505050565b8060051b820135601e198336030181121561055e578201908135916001600160401b03831161055e57602001823603811361055e57615ba4615baa91615bc5943691611500565b30615bdb565b615bb48287615913565b52615bbf8186615913565b506158fb565b615b50565b806060602080938701015201615b42565b6000806107ba93615bea613d84565b93615bf7813b1515613d29565b602082519201905af4615c0861346c565b90613dcd56fe360894a13ba1a3210667c828492db98dca3e2076cc3735a920a3ca505d382bbca581b17bfc4d6578e300cafbf34fd2dc1fef0270d8c73f88a99dcde2859a6639a2646970667358221220db2804ef7b1f478a5ac8746c83ea5ef7a63ed7863fd3bd44d14c1ff15439200464736f6c63430008110033",
    "linkReferences": {}
  },
  "methodIdentifiers": {
    "DEFAULT_ADMIN_ROLE()": "a217fddf",
    "MINTER_ROLE()": "d5391393",
    "SALES_MANAGER_ROLE()": "e26bd343",
    "adminMint(address,uint256)": "e58306f9",
    "adminMintAirdrop(address[])": "b8ae5a2c",
    "approve(address,uint256)": "095ea7b3",
    "balanceOf(address)": "70a08231",
    "burn(uint256)": "42966c68",
    "callMetadataRenderer(bytes)": "b9e7a584",
    "computeFreeMintRewards(uint256)": "722933f7",
    "computePaidMintRewards(uint256)": "5c046084",
    "computeTotalReward(uint256)": "4132239b",
    "config()": "79502c55",
    "contractURI()": "e8a3d485",
    "contractVersion()": "a0a8e460",
    "createReferral()": "62bf43f0",
    "factoryUpgradeGate()": "25eb54c6",
    "finalizeOpenEdition()": "41e96eb1",
    "getApproved(uint256)": "081812fc",
    "getRoleAdmin(bytes32)": "248a9ca3",
    "grantRole(bytes32,address)": "2f2ff15d",
    "hasRole(bytes32,address)": "91d14854",
    "initialize(string,string,address,address,uint64,uint16,bytes[],address,bytes,address)": "5b94e902",
    "isAdmin(address)": "24d7806c",
    "isApprovedForAll(address,address)": "e985e9c5",
    "metadataRenderer()": "70319970",
    "mintWithRewards(address,uint256,string,address)": "45368181",
    "mintedPerAddress(address)": "d445b978",
    "multicall(bytes[])": "ac9650d8",
    "name()": "06fdde03",
    "owner()": "8da5cb5b",
    "ownerOf(uint256)": "6352211e",
    "presaleMintsByAddress(address)": "61fea768",
    "proxiableUUID()": "52d1902d",
    "purchase(uint256)": "efef39a1",
    "purchasePresale(uint256,uint256,uint256,bytes32[])": "25024a2b",
    "purchasePresaleWithComment(uint256,uint256,uint256,bytes32[],string)": "2e706b5a",
    "purchasePresaleWithRewards(uint256,uint256,uint256,bytes32[],string,address)": "ae6e7875",
    "purchaseWithComment(uint256,string)": "03ee2733",
    "purchaseWithRecipient(address,uint256,string)": "d234255c",
    "renounceRole(bytes32,address)": "36568abe",
    "revokeRole(bytes32,address)": "d547741f",
    "royaltyInfo(uint256,uint256)": "2a55205a",
    "royaltyMintSchedule()": "6dc45b22",
    "safeTransferFrom(address,address,uint256)": "42842e0e",
    "safeTransferFrom(address,address,uint256,bytes)": "b88d4fde",
    "saleDetails()": "3474a4a6",
    "salesConfig()": "1d2c0b38",
    "setApprovalForAll(address,bool)": "a22cb465",
    "setFundsRecipient(address)": "10a7eb5d",
    "setMetadataRenderer(address,bytes)": "3bcdcc87",
    "setOwner(address)": "13af4035",
    "setSaleConfiguration(uint104,uint32,uint64,uint64,uint64,uint64,bytes32)": "ffdb7163",
    "supportsInterface(bytes4)": "01ffc9a7",
    "symbol()": "95d89b41",
    "tokenURI(uint256)": "c87b56dd",
    "totalSupply()": "18160ddd",
    "transferFrom(address,address,uint256)": "23b872dd",
    "updateCreateReferral(address)": "8b338c7c",
    "updateRoyaltyMintSchedule(uint32)": "d0bd3c6b",
    "upgradeTo(address)": "3659cfe6",
    "upgradeToAndCall(address,bytes)": "4f1ef286",
    "withdraw()": "3ccfd60b",
    "withdrawRewards(address,uint256)": "d6ef7af0",
    "zoraERC721TransferHelper()": "00cd4b5e",
    "zoraFeeForAmount(uint256)": "ee37be39"
  },
  "id": 71
}